:020000021000EC
:108000000080002065140200AD140200AF140200CD
:108010000000000000000000000000000000000060
:10802000000000000000000000000000B114020089
:108030000000000000000000B3140200B5140200AC
:10804000B7140200B7140200F1A00100B714020037
:10805000B7140200000000003D870100B7140200C1
:10806000B7140200B7140200B7140200B7140200DC
:10807000B7140200B7140200B7140200B7140200CC
:10808000B7140200599A0100B7140200B714020095
:10809000A59A0100B714020025140200B7140200CB
:1080A000B7140200B7140200000000000000000036
:1080B00000000000000000000000000000000000C0
:1080C000164B002B00D1144B9D46402292029A1A67
:1080D000924600218B460F461348144A121A00F0AC
:1080E00067F80F4B002B00D098470E4B002B00D0A9
:1080F00098470020002104000D000D48002802D000
:108100000C4800E000BF00F02DF82000290004F02A
:108110003DFD00F011F8C04600000800008000207E
:10812000000000000000000074200020442900200E
:108130000000000000000000084B10B5041C002BDC
:1081400002D0002100E000BF054B1868836A002BB5
:1081500000D09847201C00F033F8C0460000000013
:10816000601602000E4B70B500251E1C0D4CE41A63
:10817000A410A54204D0AB00F35898470135F8E7A6
:1081800009F060FA084B00251E1C084CE41AA410E4
:10819000A54204D0AB00F35898470135F8E770BD0D
:1081A00074200020742000207420002074200020FF
:1081B000031C8218934202D019700133FAE770470A
:1081C000FEE7C04680B582B000AF78600A1CFB1C99
:1081D0001A70A023DB05FA1C12789200111C7A6831
:1081E000C132FF329200D150BD4602B080BDC046C0
:1081F00080B582B000AF786039603B68012B07D151
:108200007B685B687A681278101C0121984709E046
:108210003B68002B06D17B685B687A681278101C7B
:1082200000219847BD4602B080BDC04680B586B0EB
:1082300000AF7860314B1A780823FB18101C191C0A
:1082400000F0C6FC031C3B613B69002B53D1172394
:10825000FB1800221A7047E0294B1A681723FB18F5
:108260001B78DB00D318FB60264B1B68FA6812787A
:10827000111C01228A40134013D0FB685B68002B5D
:108280000FD0FB685B78012B05D1FB68181C00211F
:10829000FFF7AEFF21E0FB68181C0121FFF7A8FFE4
:1082A0001BE0184B5B68FA681278111C01228A40A7
:1082B000134012D0FB685B68002B0ED0FB685B7824
:1082C000012B05D1FB68181C0121FFF791FF04E089
:1082D000FB68181C0021FFF78BFF1723FB181A7887
:1082E0001723FB1801321A70074B1B781722BA1894
:1082F00012789A42B0D3BD4606B080BD80200020DF
:1083000074200020882000207820002080B584B0D0
:1083100000AF78603960104B1B68181C01F044FDF9
:10832000031CFB60FB68002B00D011E00B4B7A684C
:108330005A600A4B3A681A60074B1868084B19686C
:108340007A683B6813431A1C01F0E8FC031CFB60CD
:10835000BD4604B080BDC046842000208820002097
:108360007C20002080B588B000AFF8607A600B23D5
:10837000FB180A1C1A707B68042B01D8072344E001
:10838000244BFA681A60244B0B22BA1812781A7020
:10839000224B7A681A600023FB6118E00B23FB185C
:1083A0001B78DB00FA68D318BB61BB691B781A1C09
:1083B000BB699B78101C191CFFF704FFBB691B7875
:1083C0001A1C012393401A1CFB691343FB610B2306
:1083D000FB181B780B22BA18591E1170002BDDD127
:1083E0000F48F969FA690F4B00F0E4FA031C7B614E
:1083F0007B69002B01D07B6907E00B4A0B4B101CFB
:1084000000211A1C01F012FC031C181CBD4608B008
:1084100080BDC04674200020782000207C200020F1
:10842000802000200D830100842000202D82010087
:1084300080B500AF074B1B68002B01D1082305E076
:10844000054B1B78181C00F019FB031C181CBD46BB
:1084500080BDC046742000208020002080B500AF81
:10846000BFF34F8F024B034ADA60BFF34F8FFEE733
:1084700000ED00E00400FA0580B584B000AFF860BC
:10848000B9607A60FFF7EAFFBD4604B080BDC04620
:1084900080B584B000AF78607B689B68FB607B68C8
:1084A000DA68FB68D31A181CBD4604B080BDC0460C
:1084B00080B582B000AF78600A1CFB1C1A707B6824
:1084C000181CFFF7E5FF021C7B689B889A4211D8B5
:1084D0007B681A687B68DB68796889880B40D318E9
:1084E000FA1C12781A707B68DB685A1C7B68DA60A9
:1084F000002300E00423181CBD4602B080BDC04626
:1085000080B582B000AF786039607B68181CFFF7D7
:10851000BFFF031E11D07B681A687B689B6879686F
:1085200089880B40D3181A783B681A707B689B685F
:108530005A1C7B689A60002300E00523181CBD4686
:1085400002B080BD80B582B000AF021CFB1D1A7066
:10855000064BFA1D1278111C1F220A40012191407E
:108560000A1C1A60BD4602B080BDC04600E100E0B2
:1085700080B582B000AF021CFB1D1A70074AFB1DBC
:108580001B78191C1F230B40012199400B1C191C3F
:10859000C0235B00D150BD4602B080BD00E100E0C9
:1085A000B0B582B000AF021C3960FB1D1A70FB1D14
:1085B0001B787F2B2FD92D4CFB1D1B781A1C0F23EA
:1085C0001340083B9908294AFB1D1B78181C0F23F0
:1085D0000340083B9B0806339B00D3185B68FA1DD9
:1085E0001278101C03220240D200101CFF2282408D
:1085F000D2431A403B689B01FF200340F81D0078DE
:10860000051C03202840C00083401A438B1D9B009B
:10861000E3185A6026E0164CFB1D1B785BB29B08E2
:108620001349FA1D127852B29208C0329200525881
:10863000F91D0978081C03210140C900081CFF210D
:108640008140C94311403A689201FF200240F81D61
:108650000078051C03202840C00082400A43C03334
:108660009B001A51BD4602B0B0BDC04600ED00E00F
:1086700000E100E080B582B000AF78607B68032243
:1086800013405A425341DBB2181CBD4602B080BDB4
:1086900080B586B000AF7860396000237B6144E02C
:1086A0007B6901229A40131CFB603B68FA68134007
:1086B00038D07B68DB68FA68134009D180239B02BD
:1086C0003B617B68DA68FB681A437B68DA6009E023
:1086D000C0239B023B617B68DB68FA68D2431A4087
:1086E0007B68DA60A023DB05A022D2057969C1315D
:1086F000FF3189008A58104911407A69C132FF322E
:108700009200D150A023DB05A022D2057969C131A6
:10871000FF31890089583A6911437A69C132FF32C1
:108720009200D1507B6901337B617B691F2BB7D9E4
:10873000BD4606B080BDC046FFFFFCFF80B58AB0D5
:1087400000AFA023DA05A223DB00D358BB61494A5E
:10875000BE235B000021D1502723FB1800221A7092
:108760007DE0454B19682723FB181A78131C9B00E2
:108770009B189B00CB187B612723FB181B780122D9
:108780009A40131C1A1C3D4B1B68134060D00023F9
:108790003B620023FB617B69DB68DA43BB695A40BB
:1087A0007B691B6813403B617A693B69101C191C8B
:1087B000FFF76EFFA023DA05A223DB00D258BB69C6
:1087C0005A407B691B681340FB60FB68002B21D07B
:1087D000BA69FB685340BB607B69DB68DA43BB68FE
:1087E0005A407B691B6813407B607A697B68101C68
:1087F000191CFFF74DFFBB68DA437B699B68134088
:108800007A681340FB617B695B68BA6813407A68D9
:1088100013403B62BB69DA437B699B6813403A694A
:108820001340FA691343FB617B695B68BA691340C3
:108830003A6913403A6A13433B623A6AFB6913434D
:1088400006D07B691B69396AFA69081C111C9847B4
:108850002723FB181A782723FB1801321A70084BBC
:108860001B782722BA1812789A4200D279E7BD46BF
:108870000AB080BD006000409820002090200020B9
:108880009520002080B584B000AF021CFB1D1A703B
:108890000023FB6030E01B4B1968FB1D1A78131C8A
:1088A0009B009B189B00CB181B68FA680121914024
:1088B0000A1C13401DD0A023DB05A022D205F968B5
:1088C000C131FF3189008A580F491140FA68C1321D
:1088D000FF329200D150A023DB05A022D205F96817
:1088E000C131FF3189008958FA68C132FF329200E4
:1088F000D150FB680133FB60FB681F2BCBD9BD4611
:1089000004B080BD98200020FFFFFCFF80B582B03E
:1089100000AF021C3960FB1D1A703B68002B01D1AF
:10892000072338E03B68181CFFF7A4FE031C1A1C41
:1089300001235340DBB2002B01D007232BE0184B5F
:108940003A681A60174BFA1D12781A70164B0022FB
:108950001A70164B00221A60114B1968114B1B78C4
:108960001A1C131C9B009B189B00081C00211A1C3E
:10897000FFF71EFC0E49C2239B0001225242CA503F
:108980000620FFF7F5FD06200121FFF709FE06206E
:10899000FFF7D8FD0023181CBD4602B080BDC046BD
:1089A0009820002094200020952000209020002076
:1089B0000060004080B584B000AFF860B9607A60B4
:1089C0003B602B4B1B68002B01D108234CE03B681C
:1089D000002B01D1072347E0264B1A78264B1B7842
:1089E0009A4201D304233FE0214B1A68214B1B78A4
:1089F000191C0B1C9B005B189B00D318B9687A6884
:108A00000A431A601A4B1A681A4B1B78191C0B1C64
:108A10009B005B189B00D318BA685A60144B1A6805
:108A2000144B1B78191C0B1C9B005B189B00D31864
:108A30007A689A600E4B1A680E4B1B78191C0B1C37
:108A40009B005B189B00D3183A681A61094B1B788E
:108A50005A1CD1B2074A1170FA681370FB681B7870
:108A6000181CFFF70FFF0023181CBD4604B080BD83
:108A700098200020952000209420002080B586B00A
:108A800000AF021CFB1D1A704C4B1B68002B01D160
:108A900008238FE04A4B1B78FA1D12789A4201D3C3
:108AA000072387E0474ABE235B000021D150A02363
:108AB000DA05A223DB00D358FB60434B1B68002B75
:108AC00005D14049C1239B0080221206CA50FB1DDC
:108AD0001B7801229A40131C1A1C3B4B1B681A433B
:108AE000394B1A60354B1968FB1D1A78131C9B0013
:108AF0009B189B00CB180022DA6000237B6155E0B5
:108B00007B6901229A40131CBB602C4B1968FB1D2A
:108B10001A78131C9B009B189B00CB181B68BA6823
:108B2000134040D0FB68BA68134003D0C0239B02B7
:108B30003B6118E080239B023B61204B1968FB1DC1
:108B40001A78131C9B009B189B00CA181B4B1868B3
:108B5000FB1D19780B1C9B005B189B00C318D96880
:108B6000BB680B43D360A023DB05A022D205796943
:108B7000C131FF3189008A58144911407A69C132E4
:108B8000FF329200D150A023DB05A022D2057969E3
:108B9000C131FF31890089583A6911437A69C1327C
:108BA000FF329200D1507B6901337B617B691F2BBF
:108BB000A6D90023181CBD4606B080BD9820002011
:108BC000952000200060004090200020FFFFFCFF67
:108BD00080B584B000AF021C3960FB1D1A70134BC6
:108BE0001B68002B01D108231CE0114B1B78FA1DD8
:108BF00012789A4201D3072314E00C4B1968FB1D2D
:108C00001A78131C9B009B189B00CB18FB60A023B9
:108C1000DA05A223DB00D258FB681B681A403B68C8
:108C20001A600023181CBD4604B080BD98200020A7
:108C30009520002080B582B000AF78607B68032269
:108C400013405A425341DBB2181CBD4602B080BDEE
:108C500080B582B000AF021CFB1D1A70064BFA1DD6
:108C60001278111C1F220A40012191400A1C1A602F
:108C7000BD4602B080BDC04600E100E080B582B0D4
:108C800000AF021CFB1D1A70074AFB1D1B78191C44
:108C90001F230B40012199400B1C191C8023D1502C
:108CA000BD4602B080BDC04600E100E080B582B0A4
:108CB00000AF021CFB1D1A70074AFB1D1B78191C14
:108CC0001F230B40012199400B1C191C80235B00C2
:108CD000D150BD4602B080BD00E100E080B582B059
:108CE00000AF021CFB1D1A70074AFB1D1B78191CE4
:108CF0001F230B40012199400B1C191CC0235B0052
:108D0000D150BD4602B080BD00E100E0B0B582B0F8
:108D100000AF021C3960FB1D1A70FB1D1B787F2BF6
:108D20002FD92D4CFB1D1B781A1C0F231340083B19
:108D30009908294AFB1D1B78181C0F230340083B88
:108D40009B0806339B00D3185B68FA1D1278101C31
:108D500003220240D200101CFF228240D2431A405C
:108D60003B689B01FF200340F81D0078051C032091
:108D70002840C00083401A438B1D9B00E3185A60B3
:108D800026E0164CFB1D1B785BB29B081349FA1DAD
:108D9000127852B29208C03292005258F91D0978E6
:108DA000081C03210140C900081CFF218140C94360
:108DB00011403A689201FF200240F81D0078051C1E
:108DC00003202840C00082400A43C0339B001A5150
:108DD000BD4602B0B0BDC04600ED00E000E100E0DD
:108DE00080B582B000AF021CFB1D1A70FB1D1B7802
:108DF0007F2B16D9164AFB1D1B78191C0F230B401D
:108E0000083B9B0806339B00D3185B68FA1D127859
:108E1000111C03220A40D200D340FF2213409B09B9
:108E200011E00C4AFB1D1B785BB29B08C0339B0012
:108E30009B58FA1D1278111C03220A40D200D3401D
:108E4000FF2213409B09181CBD4602B080BDC046DE
:108E500000ED00E000E100E080B582B000AF0C4B17
:108E60005B68DB05DB0D7B607B68002B0BD07B68D0
:108E7000103B3B603B68DBB25BB2181CFFF7B0FFF6
:108E8000031CDBB200E00423181CBD4602B080BD09
:108E900000ED00E080B582B000AF78600549A12305
:108EA000DB007A68CA5011200321FFF72FFFBD466F
:108EB00002B080BD0010014080B582B000AF1649FD
:108EC000D1239B0080225202CA501349C1239B0028
:108ED00080225202CA501120FFF700FF1120FFF735
:108EE000B7FE0D4B01221A602F237B607B68181C94
:108EF0000138C046C046C046C046C046C046C0460F
:108F0000C046C046C046C046C046F1D1034B012210
:108F10001A70BD4602B080BD00100140C420002080
:108F200080B582B000AF1120FFF7A8FE1F49D22301
:108F30009B0080225202CA501C49C2239B008022FF
:108F40005202CA50194B01225A602F233B603B68E2
:108F5000181C0138C046C046C046C046C046C04680
:108F6000C046C046C046C046C046C046F1D10F4BC1
:108F700001229A600E4B00221A602F237B607B68CF
:108F8000181C0138C046C046C046C046C046C04650
:108F9000C046C046C046C046C046C046F1D1054B9B
:108FA00000221A70BD4602B080BDC04600100140CC
:108FB000B0200020C420002080B500AF024A034B3F
:108FC000D358181CBD4680BD0010014004050000A8
:108FD00080B582B000AF786039607A683B68D31A98
:108FE0001B021B0A181CBD4602B080BD80B582B0B2
:108FF00000AF78600349A823DB007A68CA50BD46F9
:1090000002B080BD0010014080B586B000AF78602E
:109010004C4B19687A68131CDB009B189B00CB181B
:10902000BB60494B1B68013303D1474B7A681A6018
:1090300084E0BB685968434B1868434B1A68131C9B
:10904000DB009B189B00C3185B6899421ED83D4B00
:1090500019683D4B1A68131CDB009B189B00CA184B
:10906000384B1868384B19680B1CDB005B189B00E9
:10907000C3185968BB685B68CB1A5360324B1A68D7
:10908000BB681A62304B7A681A6057E0BB685B684D
:10909000FB602D4B1B687B612B4B1B683B6117E012
:1090A000284B19683A69131CDB009B189B00CB18EE
:1090B0005B68FA68D31AFB603B697B61214B1968D6
:1090C0003A69131CDB009B189B00CB181B6A3B61A1
:1090D0003B6901330BD01B4B19683A69131CDB0049
:1090E0009B189B00CB185A68FB689A42D8D33B69FF
:1090F000013313D0134B19683A69131CDB009B181A
:109100009B00CA180F4B186839690B1CDB005B18F1
:109110009B00C3185968FB68CB1A5360BB68FA6898
:109120005A60BB683A691A62064B19687A69131C5F
:10913000DB009B189B00CB187A681A62BD4606B00C
:1091400080BDC046A0200020AC20002080B586B0A5
:1091500000AF78603D4B1B687B617B693B6110E031
:109160003A697B689A4200D10EE03B697B61384BDB
:1091700019683A69131CDB009B189B00CB181B6A0B
:109180003B613B690133EBD13B69013300D159E0CD
:109190007A693B699A4218D12D4B19682B4B1A6892
:1091A000131CDB009B189B00CB181A6A274B1A6014
:1091B000264B1B68013308D1264B01229A60264BAF
:1091C00000221A60254B01221A70214B19683A6956
:1091D000131CDB009B189B00CB185B68FB601C4BCF
:1091E00019687A69131CDB009B189B00CA18184B7E
:1091F000186839690B1CDB005B189B00C3181B6ADD
:109200001362134B19687A69131CDB009B189B00CF
:10921000CB181B6A3B613B69013313D00C4B1968B7
:109220003A69131CDB009B189B00CA18084B18688E
:1092300039690B1CDB005B189B00C3185968FB687D
:10924000CB185360BD4606B080BDC046AC200020A0
:10925000A020002000100140B0200020C5200020E8
:1092600080B500AF1120FFF721FDBD4680BDC0468F
:1092700080B500AF1420FFF719FDBD4680BDC04684
:1092800080B584B000AF7860124B1B68002B17D0FC
:10929000104B1A687B6899697B68DB69081C191C8C
:1092A0009047031CFB60FB68BB60BB68002B06D0CB
:1092B000BB68181C00210022FFF7DEF806E005E07D
:1092C0007B689A697B68DB69181C9047BD4604B0CF
:1092D00080BDC046C020002080B584B000AF2B4BBD
:1092E0001B6801334FD000237B60FFF765FE021C33
:1092F000274B1B68101C191CFFF76AFE031CBB6080
:10930000224B1B68FB601FE0224B1968FA68131C94
:10931000DB009B189B00CB183B603B685A68BB681E
:109320009A4200D913E03B685B68BA68D31ABB6005
:109330003B685B687A68D3187B603B681B6AFB609C
:109340003B68181CFFF79CFFFB680133DCD1124B14
:109350001A78124B1B789A420CD1104B1B780133B0
:10936000DAB20E4B1A700D4B1B78022B02D10B4B4D
:1093700000221A70094B1B781A1C094B920079685D
:10938000D150FFF775FFBD4604B080BDAC20002072
:10939000B0200020A0200020BC200020BD20002004
:1093A000B420002080B582B000AF7860184B1A78E6
:1093B000184B1B789A4223D0154B1B780133DAB235
:1093C000134B1A70124B1B78022B02D1104B002248
:1093D0001A700F4B1B781A1C0F4B9200D2587B68E7
:1093E0001A607B681A680D4B1B68D2180B4B1A6009
:1093F0000A4B1B681B021A0A084B1A60012303E080
:109400007B6800221A600023181CBD4602B080BD94
:10941000BC200020BD200020B4200020B02000206F
:1094200080B586B000AF424B1B683B611723FB1829
:10943000404A12781A7066E03F4B1A681723FB18EF
:109440001B78DB00D318FB601623FB18FA68127830
:109450001A7051E0FB6859681623FB181A78131C20
:109460005B009B18DB00CB18BB601623FB181A7837
:109470001623FB1801321A70FB689B781622BA1863
:1094800012789A4203D11623FB1800221A70BB6887
:109490001B78022B02D0032B28D02CE0274B196815
:1094A000BB685A68131CDB009B189B00CB187B60C1
:1094B0007B681B7D002B07D0BB685B68181CFFF71F
:1094C00045FE7B6800221A7516E01C4B1968184B84
:1094D0001A68131CDB009B189B00CB183B603B6891
:1094E00000221A753B681A6A114B1A60104B1B68F0
:1094F0000133EAD100E0C046FB685B781622BA1857
:1095000012789A42A6D11723FB181B781722BA1893
:10951000591E1170002B8FD1054B1A683B69D31A65
:109520005A1E9341DBB2181CBD4606B080BDC04632
:10953000AC200020A4200020A8200020A020002093
:1095400080B588B000AFF860B9607A600023FB6135
:1095500042E0254B1968254B1A68131CDB009B1849
:109560009B00CB18BB61BB695A68FB689A4206D95D
:10957000BB695A68FB68D21ABB695A6030E0BB69A4
:109580005B68FA68D31AFB60BB695B68FA69D31839
:10959000FB61BB6900225A60BB6900221A75134B3C
:1095A0001B687B61BB691A6A104B1A60BB691B6937
:1095B000002B11D0BA68FB69D3181B021A0ABB69C9
:1095C0009A60BB691A69BB69DA607B681A68BB6913
:1095D0001A627B687A691A60044B1B680133B8D140
:1095E000BD4608B080BDC046A0200020AC200020B1
:1095F00080B58AB000AF7860664B1B68BB612723DB
:10960000FB18654A12781A70AEE0644B1A6827237B
:10961000FB181B78DB00D3187B619AE07B68013371
:109620000ED07B683B625E4B19683A6A131CDB0004
:109630009B189B00CB18FB61FB691B6A7B6045E0B4
:109640007B695A687B691B78191C0B1C5B005B18D3
:10965000DB00D3183B617B691B780133DAB27B698D
:109660001A707B691A787B699B789A4202D17B6970
:1096700000221A703B695B683B62494B19683A6A81
:10968000131CDB009B189B00CB18FB613B691B780C
:10969000012B03D1FB691B7D002B00D059E03B69F6
:1096A0009A68FB699A603B69DA68FB69DA603B6932
:1096B0001A69FB691A613B695A69FB69DA61394BBE
:1096C0001B78002B02D0FB6900229A60FB699A6824
:1096D000354B1B68D31A1B021B0A344A93420ED81F
:1096E000FB699A68304B1B68101C191CFFF770FC53
:1096F000021CFB69DB68D218FB695A6018E02A4B30
:109700001A68FB699B68101C191CFFF761FC031C9D
:10971000FB60FB69DA68FB689A4206D9FB69DA6884
:10972000FB68D21AFB695A6002E0FB6900225A60AA
:10973000FB6900229A60FB690022DA60FB69012262
:109740001A75FB69012252421A623B6A181CFFF724
:109750005BFC7B68013300D060E77B691A787B692A
:109760005B789A4200D059E72723FB181B78272201
:10977000BA18591E1170002B00D046E7054B1A6825
:10978000BB69D31A5A1E9341DBB2181CBD460AB0FE
:1097900080BDC046AC200020A4200020A8200020CE
:1097A000A0200020C5200020B0200020FEFF7F0068
:1097B00090B589B000AF78602A4B1B6801334CD05C
:1097C000294B1968274B1A68131CDB009B189B0058
:1097D000CB185B68FB61FFF7EFFB031CBB61234BFE
:1097E0001B687B61BA697B69101C191CFFF7F0FBD1
:1097F000031C03333B611E4B1B7801225340DBB239
:10980000002B01D0FFF758FBFA693B69934200D265
:10981000131C7A69D3187B617B691B021B0A7B616D
:109820007B69181CFFF7E2FBFFF7C6FB031CFB601C
:10983000FA68BB69101C191CFFF7CAFB031CDC1C6F
:109840007A69BB69101C191CFFF7C2FB031C9C4200
:1098500002D9FFF705FD02E001E0FFF761FBBD461D
:1098600009B090BDAC200020A0200020B020002036
:10987000C420002090B587B000AF01235B427B601D
:109880001E4B1B683B611E4B1B68FB600B23FC18C7
:109890003B1C181CFFF786FD031C23701723FC18C4
:1098A000FFF7BEFD031C23700B23FB181B78002B56
:1098B0000BD039683A693B1D081C111C1A1CFFF7B4
:1098C0003FFE1723FB1801221A707B68181CFFF754
:1098D0008FFE031E03D01723FB1801221A701723D3
:1098E000FB181B78002B03D0FB68181CFFF760FFE8
:1098F000044B00221A70BD4607B090BDB020002076
:10990000AC200020C520002080B582B000AF786078
:1099100039603B68DAB27B685A70BD4602B080BDE0
:1099200080B584B000AF786039607B685B780133C4
:10993000FB607B689B781A1EFB689A4201D100236A
:10994000FB607B681B781A1EFB689A4201D10023DA
:109950000EE03B68FA681A607B685A687B685B783F
:10996000191C0B1C5B005B18DB00D318BB60BB68C9
:10997000181CBD4604B080BD80B586B000AFF8604D
:10998000B9607A603B601B4B1A68FB68DB00D21839
:109990001023FB18101C191CFFF7C2FF031C7B616E
:1099A0007B69002B01D1042320E07B6901221A701E
:1099B0007B69BA685A60FFF7FFFA021C7B699A60FC
:1099C0007B697A68DA607B693A681A617B693A6A0E
:1099D0005A61084B1A68FB68DB00D2183B69101CFF
:1099E000191CFFF791FFFFF743FC0023181CBD462D
:1099F00006B080BDA820002080B584B000AF78609C
:109A00003960144B1A687B68DB00D2180823FB18F6
:109A1000101C191CFFF784FF031CFB60FB68002B64
:109A200001D1042312E0FB6802221A70FB683A6835
:109A30005A60084B1A687B68DB00D218BB68101CA0
:109A4000191CFFF761FFFFF713FC0023181CBD462C
:109A500004B080BDA820002080B500AF104AA0232C
:109A60005B000021D1500E4AA2235B000021D1509F
:109A70000B4AA4235B000021D150094AA6235B00B6
:109A80000021D150064A80235B000021D150044AB6
:109A900082235B000021D150FFF71EFCBD4680BD34
:109AA0000010014080B500AFFFF7E4FEBD4680BD69
:109AB00080B586B000AFF860081C111C7B600B23DA
:109AC000FB18021C1A700A23FB180A1C1A707B6808
:109AD000181CFFF7AFF8031C1A1C01235340DBB21C
:109AE000002B01D007238BE07B68002B01D10723DB
:109AF00086E0FFF715FA444B3A6A1A60434B0B2293
:109B0000BA1812781A70424B7A681A6000237B6187
:109B100016E03F4B19687A69131CDB009B189B0009
:109B2000CB1800221A703A4B19687A69131CDB00B3
:109B30009B189B00CB1800221A757B6901337B614F
:109B40000B23FB181A787B699A42E2DC0B23FB1883
:109B50001A78131CDB009B189B001A1C7B689B184F
:109B60007B602C4B03221A702B4B7A681A607B683F
:109B700018337B6000237B6121E0274B1A687B69E7
:109B8000DB00D3183B613B6900221A703B6900225D
:109B90005A703B690A22BA1812789A703B697A683F
:109BA0005A600A23FB181A78131C5B009B18DB0011
:109BB0001A1C7B689B187B607B6901337B617B6926
:109BC000022BDADD154B012252421A60144B00229F
:109BD0001A70144B00221A701420FFF77FF814201B
:109BE0000321FFF793F81420FFF732F8FB68181CE5
:109BF000FFF750F9FFF7E0F9021C0B4B1A60002346
:109C0000181CBD4606B080BDC02000209C2000204E
:109C1000A0200020A4200020A8200020AC200020AC
:109C2000BC200020BD200020B020002080B586B0E0
:109C300000AFF8607A600B23FB180A1C1A70284BDF
:109C40001B68002B01D1082346E07B68002B01D163
:109C5000072341E0FB68002B01D107233CE00023F0
:109C60007B6132E01E4B19687A69131CDB009B187C
:109C70009B00CB181B78002B24D1194B19687A69EB
:109C8000131CDB009B189B00CB1801221A70144B8D
:109C900019687A69131CDB009B189B00CB180B22F8
:109CA000BA1812785A700E4B19687A69131CDB00C7
:109CB0009B189B00CB187A689A617A69FB681A60D6
:109CC000002309E07B6901337B61064B1B781A1E78
:109CD0007B699A42C6DC0423181CBD4606B080BDD1
:109CE000A02000209C20002080B582B000AFFFF7AC
:109CF000B3F8031E012B02D0032B03D005E0002391
:109D00007B6005E001237B6002E002237B60C046AC
:109D10007B68181CBD4602B080BDC04690B589B0B6
:109D200002AFF860B9607A601D4B1B68002B01D14F
:109D3000082331E01B4B1B781A1EFB689A4202D99C
:109D4000BB68042B01D8072326E0154B1968FA6875
:109D5000131CDB009B189B00CB181B78012B01D038
:109D6000082319E00E4B1968FA68131CDB009B18D6
:109D70009B00CB185B78012B01D1BB6800E000236E
:109D80007B61FFF7B1FFF968BA687C697B68009373
:109D9000231CFFF7F1FD031C181CBD4607B090BD46
:109DA000A02000209C20002080B582B000AF786009
:109DB000134B1B68002B01D108231DE0114B1B78AE
:109DC0001A1E7B689A4201D8072315E00C4B1968CC
:109DD0007A68131CDB009B189B00CB181B78012BA7
:109DE00001D0082308E0FFF77FFF021C7B68101CEE
:109DF000191CFFF701FE031C181CBD4602B080BDF4
:109E0000A02000209C20002080B582B000AF7860A8
:109E100039603B681B7B002B07D03B685A687B6826
:109E20001A607B6800221A7106E03B681A687B683A
:109E30001A607B6801221A71BD4602B080BDC0461F
:109E400080B582B000AF786039607B681B79002BE9
:109E500018D03B685A687B681B68D21A3B689B68BD
:109E60009A4207D97B681A683B689B68D2187B685E
:109E70001A601FE03B685A687B681A607B680022A2
:109E80001A7117E07B681A683B681B68D21A3B6836
:109E90009B689A4207D97B681A683B689B68D21A0C
:109EA0007B681A6006E03B681A687B681A607B680A
:109EB00001221A717B681B68181CBD4602B080BD68
:109EC00080B584B000AF78607B689B68FB607B687E
:109ED000DA68FB68D31A181CBD4604B080BDC046C2
:109EE00080B500AF074B00221A70074B0122DA60E1
:109EF000054B01225A60044AA023DB000021D15007
:109F0000BD4680BDEC2000200020004080B582B01E
:109F100000AF084B0122DA60074B01221A703B1C8C
:109F200003221A70054B1B683A1C101C9847BD464B
:109F300002B080BD00200040EC200020E82000207E
:109F400080B582B000AF144B1B78DBB2022B02D07D
:109F5000124B01229A60124AFB1D101C191CFEF7BD
:109F6000CFFA031E02D0FFF7D1FF12E00B4AC22343
:109F70009B008021D150094AFB1D1B78191C094BFD
:109F8000D150054B02221A70044AC1239B00802144
:109F9000D150BD4602B080BDEC2000200020004022
:109FA000D82000201C05000080B500AF064B181C0F
:109FB000FFF786FF031E02D0FFF7C2FF01E0FFF7A5
:109FC000A5FFBD4680BDC046D820002080B500AFAB
:109FD000084B1B78DBB2012B02D0022B03D006E02A
:109FE000FFF77EFF03E0034B03221A70C046BD4615
:109FF00080BDC046EC20002080B500AF114B1B781F
:10A00000DBB2002B02D0032B15D018E00E4AA023A0
:10A01000DB000421D1500C4B01221A600B4B181CA1
:10A02000FFF74EFF031E02D0FFF78AFF07E0054B44
:10A0300001221A7003E0034B02221A70C046BD468B
:10A0400080BDC046EC20002000200040D820002029
:10A0500080B500AF094B1B78DBB2012B0ADB022B6A
:10A0600005DD032B00D005E0FFF73AFF03E0FFF723
:10A070009BFF00E0C046BD4680BDC046EC200020EE
:10A0800080B500AF044B1B78DBB2012B01D1FFF789
:10A0900057FFBD4680BDC046EC20002080B500AF14
:10A0A000FFF71EFFBD4680BD80B582B000AF021C29
:10A0B000FB1D1A70FB1D1B78042B13D89A000B4B49
:10A0C000D3181B689F46FFF781FF0CE0FFF794FF52
:10A0D00009E0FFF7BDFF06E0FFF7D2FF03E0FFF75F
:10A0E000DDFF00E0C046BD4602B080BD6416020040
:10A0F00080B588B000AF354A84235B00D358002B6D
:10A1000033D0324A84235B000021D1502F4AA3234D
:10A11000DB00D358DBB22E4A101C191CFEF7C8F91D
:10A12000031CFB61FB69002B0ED01023FB180122DE
:10A130001A701023FB18FA695A60264B1B6810220C
:10A14000BA18101C984710E0214B181CFFF7B8FEF6
:10A15000031E012B09D10823FB1800221A701D4B86
:10A160001B680822BA18101C9847184A8E235B00F7
:10A17000D358002B07D0154A8E235B000021D15005
:10A180000320FFF791FF114A92235B00D358002B65
:10A1900019D00E4A92235B000021D1500B4A902324
:10A1A000DB00D358BB6109499023DB00BA69CA5070
:10A1B0003B1C02221A703B1CBA695A60054B1B6893
:10A1C0003A1C101C9847BD4608B080BD00200040D6
:10A1D000C8200020E820002080B500AF80235B0568
:10A1E0001B699BB2181CBD4680BDC04680B582B0BD
:10A1F00000AF0B4B5B697B607B68013308D0FFF7D6
:10A20000EBFF031C7868191C07F056F9031C02E0E9
:10A2100080235B055B69181CBD4602B080BDC0464B
:10A220000010001029DF7047181CC04628DF704757
:10A23000181CC04680B582B000AF78607B680322EE
:10A2400013405A425341DBB2181CBD4602B080BDD8
:10A2500080B582B000AF78601D497A68131C9B00FE
:10A260009B189B00CB1800221A7119497A68131C9D
:10A270009B009B189B00CB180022DA8014497A6857
:10A28000131C9B009B189B00CB18083301225A60BB
:10A290000F497A68131C9B009B189B00CB1808334E
:10A2A00000229A600A497A68131C9B009B189B0045
:10A2B000CB18103300225A6005497A68131C9B00A2
:10A2C0009B189B00CB1800221A81BD4602B080BDAE
:10A2D000F020002080B582B000AF0F4B00221A8022
:10A2E0000E4B00221A700E4B00221A700C4B0022EB
:10A2F0005A700B4B00229A7000237B6006E07B684B
:10A30000181CFFF7A5FF7B6801337B607B68092B76
:10A31000F5D9BD4602B080BDC4210020C721002070
:10A32000F020002080B586B000AFB9607A60191CBB
:10A330000F23FB18021C1A700C23FB180A1C1A802E
:10A340001323FB1800221A70424B5B780A2B00D1B2
:10A3500079E0404B19783F4B5A781323FB188A1841
:10A360001A701323FB181B78092B06D91323FB182B
:10A370001322BA1812780A3A1A701323FB181A78A3
:10A380003449131C9B009B189B000F22BA18CB1852
:10A3900012781A711323FB181A782E49131C9B008C
:10A3A0009B189B00CB1800225A711323FB181A78B4
:10A3B0002849131C9B009B189B00CB1810337A680C
:10A3C0005A601323FB181A7822490820131C9B009B
:10A3D0009B189B00CB181B18BA68043303CA03C32D
:10A3E0001323FB181A781B49131C9B009B189B0016
:10A3F0000C22BA18CB181288DA801323FB181A78AB
:10A400001449131C9B009B189B002022BA18CB18E0
:10A4100012881A8100237B610E4B9B7801225340E6
:10A42000DBB2002B08D000F0C5FA031C7B617B690E
:10A43000112B01D100237B61064B5B780133DAB22B
:10A44000044B5A7001E004237B617B69181CBD46F4
:10A4500006B080BDF020002080B582B000AF0023A0
:10A460007B600E4B5B78002B12D00C4B9B7801224B
:10A470005340DBB2002B0BD000F09CFA031C7B6036
:10A480007B68002B04D07B68112B01D100237B60FB
:10A490007B68181CBD4602B080BDC046F02000207D
:10A4A000B0B586B002AF786039600F23FB183A6808
:10A4B00012781A703B689A680C4B1201D358BB6033
:10A4C0003B680833191C3B681D693B685B88181C96
:10A4D0000F23FB181A787B680090BC68081C111CBD
:10A4E0001A1C2B1CA047BD4604B0B0BDC8210020DB
:10A4F00080B586B000AF786000237B61994B9B7874
:10A50000002B00D12AE1974B00229A70964B1B78C2
:10A51000082B21D17B68022B03D1934B00221A70A8
:10A5200002E0924B00221A70FFF796FF031C7B613A
:10A530007B69002B0FD08B4B1B781A1C131C9B00C4
:10A540009B189B00874A9B1804337A69101C191CBE
:10A55000FFF7A6FF02E101E17B68022B03D0032B8A
:10A5600000D1C5E0FAE07F4B1B781A1C131C9B003E
:10A570009B189B007B4A9B1804333B617C4B1B88D8
:10A5800001339AB27A4B1A803B691B78022B08D1AF
:10A59000774B1B889B023A695288934201DB012268
:10A5A00000E000220F23FB181A701A7801210A40DC
:10A5B0001A703B691B78052B05D16B4B1B78072B59
:10A5C00001D1012200E000220E23FB181A701A7834
:10A5D00001210A401A703B691B78042B05D1624B9C
:10A5E0001B78072B01D1012200E000220D23FB186C
:10A5F0001A701A7801210A401A703B691B78042BE3
:10A600000CD15B4B1B889B023A695288934205DB55
:10A61000554B1B78002B01D1012200E000220C23B6
:10A62000FB181A701A7801210A401A700E23FB18C1
:10A630001B78002B0ED10D23FB181B78002B09D1A2
:10A640000C23FB181B78002B04D10F23FB181B785D
:10A65000002B35D00B23FB18424A12781A70424B5C
:10A6600000221A70424B00221A803E4B5B78013B5D
:10A67000DAB23C4B5A703B4B1B780133DAB2394BA0
:10A680001A70384B1B78092B05D9364B1B780A3BBF
:10A69000DAB2344B1A700B23FB181A78131C9B0088
:10A6A0009B189B002F4A9B1804337A69101C191CB5
:10A6B000FFF7F6FE0B23FB181B78181CFFF7C8FDED
:10A6C000FFF7CAFE031C7B617B69002B0FD0254B73
:10A6D0001B781A1C131C9B009B189B00214A9B187B
:10A6E00004337A69101C191CFFF7DAFE36E035E0F6
:10A6F0001C4B1B781A1C131C9B009B189B00194AAF
:10A700009B1804333B613B695B780133DAB23B69E8
:10A710005A703B695B78032B0ED1124B1B781A1CC5
:10A72000131C9B009B189B000E4A9B1804330D20A2
:10A73000191CFFF7B5FE10E000F03CF9031C7B612B
:10A740007B69002B09D07B69112B06D07A693B69A4
:10A75000101C191CFFF7A4FEFFE7C046BD4606B05B
:10A7600080BDC046F0200020C7210020C621002067
:10A77000C4210020B0B586B000AFF860B9607A603F
:10A780003B6003237B61894B1B78002B0CD17B68DA
:10A79000002B06D13B68002B03D1844B02221A7098
:10A7A00002E0824B01221A70804B1B78062B00D9E5
:10A7B000F6E09A007E4BD3181B689F46FFF716FD04
:10A7C000031C5C1EFFF708FD031C63431D1CFFF701
:10A7D00003FD031C1A1CBB6853431C1CFFF7FCFC45
:10A7E000031C9B089BB2281C211C1A1CFFF71AFD96
:10A7F000031C7B617B69002B03D16C4B02221A7016
:10A80000CFE0CEE0BB68181CFFF710FD031C7B6196
:10A810007B69002B19D17B68002B12D13B68002B80
:10A820000BD1FB681B78042B03D1604B07221A70F5
:10A830000BE05E4B05221A7007E05C4B04221A7095
:10A84000AFE05A4B03221A70ABE0AAE0FFF7C4FC5A
:10A85000031C1A1CBB6853431D1CFFF7C7FC031CD9
:10A860005C1EFFF7B9FC031C63431A1C7B68281CA1
:10A87000111C1A1CFFF7D6FC031C7B617B69002BA3
:10A8800012D13B68002B0BD1FB681B78042B03D142
:10A89000464B06221A7007E0444B05221A7080E0EE
:10A8A000424B04221A707CE07BE0FFF795FC031C0E
:10A8B0001A1CBB685A437B689B00D318FA685288FD
:10A8C0009B181D1CFFF792FC031C5C1EFFF784FC09
:10A8D000031C63431A1C7B689B00D318FA685288D8
:10A8E0009B181A1C3B68281C111C1A1CFFF79AFCA9
:10A8F000031C7B617B69002B0BD1FB681B78042B4D
:10A9000003D12A4B06221A7003E0284B05221A7045
:10A9100047E046E0FFF760FC031C1A1CBB685A4383
:10A920007B689B00D318191CFB681A69FB685B885D
:10A930009B089BB2081C111C1A1CFFF773FC031C1C
:10A940007B617B69002B0DD17B68002B06D13B68B6
:10A95000002B03D1154B07221A7003E0134B06227C
:10A960001A701EE01DE0FFF741FC031C5C1EFFF7A0
:10A9700033FC031C5C43FFF72FFC031C201C191C39
:10A9800006F09AFD031C181CFFF750FC031C7B61AA
:10A990007B69002B03D1054B07221A7001E000E010
:10A9A000C0467B69181CBD4606B0B0BDC72100205B
:10A9B0007816020090B58FB000AF0F237B637B4BFE
:10A9C0001B781A1C131C9B009B189B00774A9B1832
:10A9D00004333B633B6BDB68FB623B6B1B78042BF4
:10A9E0003AD0052B00D1A4E0022B00D0D3E03B6B82
:10A9F0001B69BB626E4B1B889B027B623B6B5B8857
:10AA00001A1C7B6AD31A3B62BA6A7B6AD318BB6290
:10AA10003B6B9B881A1C7B6AD318FA6AD318FB62BB
:10AA20003B6A644A93420BD8F96A3B6A9B08BA6A4C
:10AA3000081C111C1A1CFFF7F5FB031C7B63AAE022
:10AA4000F96ABA6A80235B00081C111C1A1CFFF704
:10AA5000E9FB031C7B639EE03B6B9A681E23FB189B
:10AA6000554912018A18083212881A803B6B9A687D
:10AA70001C23FB18504912018A18083252881A8088
:10AA80003B6B9B684C4A1B01D3185B68BB61BA697E
:10AA9000FB6A9A420AD11E23FB181B881C22BA1893
:10AAA000128853433A6B5288934203D03B6B9B68A6
:10AAB000022B13D1FFF790FB031CF86A191C06F058
:10AAC000FBFC031C1A1C3A4B1B88D3187B617B6967
:10AAD000181CFFF7ABFB031C7B635CE0FFF77CFB00
:10AAE000031CF86A191C06F0E7FC031C7B61FFF7E6
:10AAF00073FB031C1A1C7B695343FA6AD31A9B0825
:10AB00003B617B695C1CFFF767FB031C63431A1CFA
:10AB10003B6B5B88191CFB6ACB18D31A9B08FB6044
:10AB2000386B79693A69FB68FFF724FE031C7B6385
:10AB300031E0FFF751FB031CF86A191C06F0BCFC5E
:10AB4000031CBB603B6B9B881A1CFB6AD418FFF785
:10AB500043FB031C1A1CBB685343E31A9B087B602E
:10AB6000BB685C1CFFF738FB031C63431A1C3B6B80
:10AB70009B88191CFB6ACB18396B49885B18D31A60
:10AB80009B083B60386BB9687A683B68FFF7F2FD59
:10AB9000031C7B63C0467B6B002B02D1034B01225D
:10ABA0009A707B6B181CBD460FB090BDF020002042
:10ABB000C4210020FF030000C821002090B583B00D
:10ABC00000AFFFF787FB2D4B00221A80FFF70EFB2B
:10ABD000031C9C1EFFF700FB031C63431A1C284B3D
:10ABE0001A60284B00221A8000237B601CE0264B51
:10ABF0007A6812010021D150234A7B681B01D318C7
:10AC0000083300221A80204A7B681B01D3180833BE
:10AC100000229A801C4A7B681B01D318083300224B
:10AC20005A807B6801337B607B68002BDFD0174B39
:10AC300008221A70FFF7DAFA031C5C1EFFF7CCFA41
:10AC4000031C5C43FFF7C8FA031C201C191C06F008
:10AC500033FC031C181CFFF7E9FA031C3B603B683C
:10AC6000002B05D10A4B01229A700A4B01221A705F
:10AC70003B68181CBD4603B090BDC046BC210020F7
:10AC8000C0210020C4210020C8210020C7210020AD
:10AC9000F0200020C6210020B0B584B000AF78605D
:10ACA00039606E4B1B7801225340DBB2002B01D080
:10ACB0000823CFE07B68002B01D10E23CAE03B685C
:10ACC000002B01D10E23C5E07B681B68002B01D14E
:10ACD0000E23BFE07B689C88FFF77EFA031C9C4232
:10ACE00003D87B689B880F2B01D80723B2E07B68D1
:10ACF000DB88002B2DD07B68DB881A1C7B689B8847
:10AD000053431A1C564B1B68D418FFF76FFA031CE9
:10AD10005D1EFFF761FA031C6B439C4219D87B68E8
:10AD2000DB881A1C7B689B8853431C1CFFF754FA72
:10AD3000031C9C420FDDFFF74FFA031C1A1C7B68B3
:10AD40009B88101C191C06F03DFC0B1C9BB2002BB1
:10AD500001D007237EE07B689B88032213409BB2CF
:10AD6000002B01D0072375E03E4B1B88012B01D13E
:10AD700004236FE03B4B1B881A1C3B681A60384B5E
:10AD80001A683B685A60374B1B88181C3B685A6826
:10AD900035490301CB185A60324B1B881A1C7B685B
:10ADA0001968314B1201D1502E4B1B88181C7B683F
:10ADB00099882D4A0301D31808330A1C1A80294B9D
:10ADC0001B88181C7B68D988274A0301D3180833CD
:10ADD0000A1C5A800E23FB1800221A807B689B886D
:10ADE0001A1C7B68DB885343BB600E23FB181A8850
:10ADF0000E23FB1801321A80FFF7EEF9031C1A1E0E
:10AE0000BB689A4207D2FFF7E7F9031C1A1CBB681C
:10AE10009B1ABB6001E00023BB60FFF7DDF9031C58
:10AE20001A1C0F4B1B68D2180D4B1A60BB68002B05
:10AE3000DBD10C4B1B880C4A1B01D31808330E22A4
:10AE4000BA1812889A80074B1B8801339AB2054BB7
:10AE50001A800023181CBD4604B0B0BDC6210020D6
:10AE6000C0210020BC210020C821002090B587B05F
:10AE700000AFF8607A600A23FB180A1C1A80314B75
:10AE80001B7801225340DBB2002B01D0082354E091
:10AE9000FB68002B01D10E234FE07B68002B01D112
:10AEA0000E234AE0FB681B68002B06D1FB681A687A
:10AEB000254B1201D358002B01D107233DE010236D
:10AEC000FB18FA6803CA03C31023FB185A680A2345
:10AED000FB181988FB681B681B481B01C318083343
:10AEE0001B884B43D2181023FB185A601023FB1801
:10AEF0005A681023FB181B6813491B01CB185968AB
:10AF00001023FB181B6810481B01C31808335B880B
:10AF10001C1C1023FB181B680B481B01C3180833AB
:10AF20001B886343CB189A4201D3072305E07B6853
:10AF30001022BA1803CA03C30023181CBD4607B069
:10AF400090BDC046C6210020C821002090B587B022
:10AF500002AFF860B960191CBB1D1A803B1D0A1CAA
:10AF60001A804A4B1B7801225340DBB2002B01D0E0
:10AF7000082387E0BB68002B01D10E2382E0FB6829
:10AF8000002B01D10E237DE0FB681B68002B06D14E
:10AF9000FB681A683E4B1201D358002B01D10723DE
:10AFA00070E0FB685A68FB681B6839491B01CB18C5
:10AFB0005968FB681B6836481B01C31808335B8857
:10AFC0001C1CFB681B6832481B01C31808331B8814
:10AFD0006343CB189A4201D3072353E0BB1D1B8860
:10AFE000002B0AD0FB681B68294A1B01D3180833C1
:10AFF0001B88BA1D12889A4201D9072342E0BB1D63
:10B000001A883B1D1B88D218FB681B6820491B014E
:10B01000CB1808331B889A4201DD072332E0BB6856
:10B02000181CFFF707F9031C1A1C01235340DBB25D
:10B03000002B0BD13B1D1B88181CFFF7FBF8031CD2
:10B040001A1C01235340DBB2002B01D0102319E05E
:10B05000FB685B68181CFFF7EDF8031C1A1C012342
:10B060005340DBB2002B01D010230BE0F968BA6823
:10B07000BB1D1C883B1D1B8800930220231CFFF76F
:10B0800051F9031C181CBD4605B090BDC621002017
:10B09000C821002090B587B002AFF860B960191CD4
:10B0A000BB1D1A803B1D0A1C1A804A4B1B780122CB
:10B0B0005340DBB2002B01D0082387E0BB68002B94
:10B0C00001D10E2382E0FB68002B01D10E237DE02D
:10B0D000FB681B68002B06D1FB681A683E4B120107
:10B0E000D358002B01D1072370E0FB685A68FB6836
:10B0F0001B6839491B01CB185968FB681B68364827
:10B100001B01C31808335B881C1CFB681B68324892
:10B110001B01C31808331B886343CB189A4201D321
:10B12000072353E0BB1D1B88002B0AD0FB681B685C
:10B13000294A1B01D31808331B88BA1D12889A426A
:10B1400001D9072342E0BB1D1A883B1D1B88D2187A
:10B15000FB681B6820491B01CB1808331B889A42E7
:10B1600001DD072332E0BB68181CFFF763F8031CFE
:10B170001A1C01235340DBB2002B0BD13B1D1B8853
:10B18000181CFFF757F8031C1A1C01235340DBB2AD
:10B19000002B01D0102319E0FB685B68181CFFF737
:10B1A00049F8031C1A1C01235340DBB2002B01D0C9
:10B1B00010230BE0F968BA68BB1D1C883B1D1B8877
:10B1C00000930520231CFFF7ADF8031C181CBD4697
:10B1D00005B090BDC6210020C8210020B0B586B0C2
:10B1E00002AFF860B960191CBB1D1A803B1D0A1C18
:10B1F0001A80534B1B7801225340DBB2002B01D045
:10B20000082398E0BB68002B01D10E2393E0FB6874
:10B21000002B01D10E238EE0BB681B68002B06D1EA
:10B22000BB681A68474B1201D358002B01D1072382
:10B2300081E0BB685A68BB681B6842491B01CB1898
:10B240005968BB681B683F481B01C31808335B88FB
:10B250001C1CBB681B683B481B01C31808331B88B8
:10B260006343CB189A4201D3072364E0BB1D1B88BC
:10B27000002B0AD0BB681B68324A1B01D318083365
:10B280001B88BA1D12889A4201D9072353E0BB1DBF
:10B290001A883B1D1B88D218BB681B6829491B01F3
:10B2A000CB1808331B889A4201DD072343E0FB6873
:10B2B000181CFEF7BFFF031C1A1C01235340DBB20E
:10B2C000002B0BD13B1D1B88181CFEF7B3FF031C82
:10B2D0001A1C01235340DBB2002B01D010232AE0BB
:10B2E000BB685B68181CFEF7A5FF031C1A1C012332
:10B2F0005340DBB2002B01D010231CE03B1D1A8809
:10B30000BB685B68D318191CBB1D1B88FA68101C2E
:10B310001A1C06F072F9BB681A680A4B1201D4585D
:10B32000BB1D1B88BA68FD680093101C0321002216
:10B330002B1CA0470023181CBD4604B0B0BDC0465E
:10B34000C6210020C821002090B587B002AF7860E8
:10B350000A1CBB1C1A80384B1B7801225340DBB2FD
:10B36000002B01D0082362E07B68002B01D10E2363
:10B370005DE07B681B68002B06D17B681A682F4B49
:10B380001201D358002B01D1072350E07B685A6883
:10B390007B681B6829491B01CB1859687B681B68AF
:10B3A00026481B01C31808335B881C1C7B681B687C
:10B3B00022481B01C31808331B886343CB189A42E9
:10B3C00001D3072333E07B685B68181CFEF732FF6C
:10B3D000031C1A1C01235340DBB2002B01D01023A5
:10B3E00025E07B685A687B681B6814491B01CB18F1
:10B3F0005B68D11A7B681B68104A1B01D31808339D
:10B400001B88081C191C06F0DDF80B1E01D0072351
:10B410000DE07A68BB1C1C88002300930420111CDB
:10B420000022231CFEF77EFF031CFB60FB68181C38
:10B43000BD4605B090BDC046C6210020C8210020F1
:10B4400080B582B000AF78600B4B1B78012253406F
:10B45000DBB2002B01D008230AE07B68002B01D16E
:10B460000E2305E0054B5B781A1C7B681A600023ED
:10B47000181CBD4602B080BDC6210020F02000206F
:10B4800080B584B000AF786039607B68032B16D834
:10B49000A023DA05A223DB00D358DB43FB600C4B6F
:10B4A0007A689200D3581A1C012393401A1CFB6837
:10B4B00013405A1E9341DAB23B681A7002E03B68AF
:10B4C00000221A700023181CBD4604B080BDC0467F
:10B4D0009416020080B584B000AF021CFB1D1A70E8
:10B4E000BB1D0A1C1A700F23FB1800221A700023C0
:10B4F000BB60BB1D1B78012B28D1164B1B68002B92
:10B5000024D002E0BB680133BB60BB68032B07D8C3
:10B51000114BBA689200D258FB1D1B789A42F1D1A8
:10B52000BB68032B06D80F23FB180C49BA688A188E
:10B5300012781A700F23FB181B78002B06D0054BCE
:10B540001B680F22BA181278101C9847BD4604B029
:10B5500080BDC046EC21002094160200F02100209E
:10B5600090B589B000AF021CFB1D1A700023FB616F
:10B570000023BB61FB1D1B78172B00D939E39A0010
:10B58000D94BD3181B689F46A023DA05A123DB0003
:10B59000B0214904D150A023DB05D44A00219950A1
:10B5A000D34BFA1D12781A7024E3A023DA05A123E5
:10B5B000DB00A0214904D150A023DB05CB4A0021A8
:10B5C0009950A023DB05CB4A9B58F02252045A40E5
:10B5D00080239B03134016D0A023DA05A123DB00B0
:10B5E00080218903D150A023DB05C04A0021995056
:10B5F000FB1D1B78022B02D1E123DB0001E0FA23C3
:10B600001B01BB6114E0A023DB05B8498022920333
:10B610005A50A023DA05A123DB000021D150FB1DE5
:10B620001B78022B01D1C82301E0C8235B00BB615A
:10B63000AF4BFA1D12781A70AF4B1C68BB69181C0F
:10B64000642105F039FF031C1A1CAC4B1B685343E3
:10B65000201C191C0022FEF761FB031CFB61C9E2E0
:10B66000A023DA05A123DB00A0214904D150A023A7
:10B67000DB059E4A00219950A023DB059D4A9B587B
:10B68000F02252045A4080239B03134016D0A0237B
:10B69000DA05A123DB0080218903D150A023DB053B
:10B6A000924A00219950FB1D1B78032B02D1C8231D
:10B6B0009B0001E0FA231B01BB6114E0A023DB0522
:10B6C0008A49802292035A50A023DA05A123DB0085
:10B6D0000021D150FB1D1B78032B01D1C82301E0B1
:10B6E000C8235B00BB61824BFA1D12781A70824B33
:10B6F0001C68BB69181C642105F0DEFE031C1A1CC3
:10B700007E4B1B685343201C191C0022FEF706FBCE
:10B71000031CFB616EE2A023DA05A123DB00A0215C
:10B720004904D150A023DB05704A00219950A02381
:10B73000DB05704A9B58F02252045A4080239B0339
:10B7400013400FD0A023DA05A123DB008021890359
:10B75000D150A023DB05654A00219950FA231B0133
:10B76000BB610EE0A023DB056049802292035A50A2
:10B77000A023DA05A123DB000021D150C8235B0000
:10B78000BB615B4BFA1D12781A705B4B1C68BB697E
:10B79000181C642105F090FE031C1A1C574B1B68F3
:10B7A0005343201C191C0022FEF7B8FA031CFB614E
:10B7B00020E2A023DA05A123DB00A0214904D15017
:10B7C000A023DB05494A00219950A023DB05494A03
:10B7D0009B58F02252045A4080239B03134015D0FB
:10B7E000A023DA05A123DB0080218903D150A02307
:10B7F000DB053E4A00219950FB1D1B78052B01D12A
:10B80000C82301E0FA231B01BB6114E0A023DB0580
:10B810003649802292035A50A023DA05A123DB0087
:10B820000021D150FB1D1B78052B01D1C82301E05D
:10B83000C8235B00BB612E4BFA1D12781A702E4B89
:10B840001C68BB69181C642105F036FE031C1A1C19
:10B850002A4B1B685343201C191C0022FEF75EFA7A
:10B86000031CFB61C6E1A023DA05A123DB00A021B4
:10B870004904D150A023DB051C4A00219950A02384
:10B88000DB051C4A9B58F02252045A4080239B033C
:10B8900013400CD0A023DA05A123DB00802189030B
:10B8A000D150A023DB05114A002199500BE0A023C1
:10B8B000DB050E49802292035A50A023DA05A1230A
:10B8C000DB000021D1500A4BFA1D12781A700A4B86
:10B8D0001A680A4B1B68101C191C0022FEF71EFA7E
:10B8E000031CFB6186E1C046C41602000C05000083
:10B8F000D821002004050000E4210020DC210020E4
:10B90000A023DA05A123DB00A0214904D150A02304
:10B91000DB05BB4A00219950A023DB05B8498022F2
:10B9200092035A50A023DA05A123DB000021D15055
:10B93000B44BFA1D12781A705CE1A023DB05B24A01
:10B940009B587B61A023DA057B69D9438023DB0305
:10B950001940A123DB00D150A023DB0579698022A7
:10B96000D2030A40A6495A50A84B1A68A84B1B6834
:10B97000101C191C0022FEF7D1F9031CFB6139E1F0
:10B98000A023DB05A04A9B583B61A023DA053B6955
:10B99000D9438023DB031940A123DB00D150A0232E
:10B9A000DB0539698022D2030A4095495A50974BEA
:10B9B0001968974B1A68131C9B009B18081C191CCC
:10B9C0000022FEF7ABF9031CFB6113E1A023DB05AA
:10B9D0008D4A9B58FB60A023DA05FB68D94380237E
:10B9E000DB031940A123DB00D150A023DB05F9685C
:10B9F0008022D2030A4082495A50844B1A68844BF1
:10BA00001B68101C191C0022FEF788F9031CFB613F
:10BA1000F0E0A023DB057C4A9B58BB60A023DA053D
:10BA2000BB68D9438023DB031940A123DB00D1503D
:10BA3000A023DB05B9688022D2030A4070495A501E
:10BA4000724B1968724B1A68131C9B009B18081CD8
:10BA5000191C0022FEF762F9031CFB61CAE0A02357
:10BA6000DB056749F02252045A50A023DA05A123CE
:10BA7000DB000021D150BDE0664B1B68181CFEF7AF
:10BA800093F9031CFB61FB1D1B781122D31ABB61C8
:10BA9000BB69002B27D0FB69002B24D1BB69012B8C
:10BAA00014D95C4B1C68BB69C8225343181C642121
:10BAB00005F002FD031C1A1C554B1B685343201C48
:10BAC000191C0022FEF72AF9031CFB61A023DB05E9
:10BAD0004B49802212045A50A023DA05A123DB002F
:10BAE0000021D15086E0A023DA05A123DB008021CC
:10BAF0000904D150A023DB05414A0021995079E087
:10BB0000A023DA05A123DB00F0214904D150A023B2
:10BB1000DB053B4A002199503A4BFA1D12781A7006
:10BB200068E0A023DA05A123DB00E0214904D1501D
:10BB3000A023DB05324A00219950A023DB053049C0
:10BB4000802292035A50A023DA05A123DB000021B2
:10BB5000D1502C4BFA1D12781A704BE0A023DA0555
:10BB6000A123DB00D0214904D150A023DB05244AC6
:10BB700000219950A023DB0521498022D2035A508D
:10BB8000A023DA05A123DB000021D1501D4BFA1DB3
:10BB900012781A702EE0A023DA05A123DB00C02161
:10BBA0004904D150A023DB05154A00219950A02358
:10BBB000DB051349C022D2035A50A023DA05A12382
:10BBC000DB000021D1500F4BFA1D12781A7011E0E2
:10BBD000A023DB050A49F02252045A50A023DA05BB
:10BBE000A123DB000021D150064BFA1D12781A70F8
:10BBF00000E0C046FB69181CBD4609B090BDC046B8
:10BC00000C050000D821002004050000E4210020DC
:10BC1000DC210020E821002080B582B000AF7860F0
:10BC2000064B1B680122134004D0054B1B78181CDF
:10BC3000FFF796FCBD4602B080BDC046E021002063
:10BC4000D821002080B584B000AF7860A023DB0548
:10BC50000B4A9B58FB60A023DA05FB68D94380237D
:10BC60001B041940A123DB00D150A023DB05F96898
:10BC7000802212040A4003495A50BD4604B080BDD8
:10BC8000040500000C05000080B584B000AF021C64
:10BC9000FB1D1A700023FB60084B1B680122134038
:10BCA00006D0FB1D1B78181CFFF75AFC031CFB6019
:10BCB000FB68181CBD4604B080BDC046E0210020D2
:10BCC00080B586B000AFF860B9607A6000237B6110
:10BCD000354BBA681A60354BFA681A60344B7A688B
:10BCE0001A60FB68022213402AD000233B610DE05A
:10BCF0003B69DBB20B33DBB23A69101C191C00F054
:10BD000065F8031C7B613B6901333B613B69032B95
:10BD100002D87B69002BEBD07B69002B09D1BB6873
:10BD20005B08244A101C04211A1CFCF71BFB031C93
:10BD30007B617B69002B03D1FCF77AFB031C7B61E1
:10BD4000FB680122134012D0A023DA05A123DB00F7
:10BD5000F0214904D150A023DB05174A0021995056
:10BD6000A023DA05A323DB00F0214904D1507B692D
:10BD7000002B08D1114A124B101C00211A1CFDF790
:10BD800055FF031C7B617B69002B08D10D4A0E4BCC
:10BD9000101C01211A1CFDF749FF031C7B617B6904
:10BDA000181CBD4606B080BDDC210020E02100202B
:10BDB000EC210020A41602000C050000E421002064
:10BDC00019BC0100E821002045BC010080B584B009
:10BDD00000AF78600A1CFB1C1A700023FB607B68B4
:10BDE000032B06D8064A7B68D318FA1C12781A70FF
:10BDF00001E00723FB60FB68181CBD4604B080BD52
:10BE0000F021002080B584B000AF78600023FB6093
:10BE10004FE02C4BFA689200D358BB60FB680122BC
:10BE20009A40131C1A1C7B68134021D0A023DB0509
:10BE3000A022D205B968C131FF3189008A58224950
:10BE40001140BA68C132FF329200D150A023DB0505
:10BE5000A022D205B968C131FF3189008A58C021BA
:10BE600089021143BA68C132FF329200D1501DE0FD
:10BE7000A023DB05A022D205B968C131FF318900BA
:10BE80008A5811491140BA68C132FF329200D1502C
:10BE9000A023DB05A022D205B968C131FF3189009A
:10BEA0008958BA68C132FF329200D150FB68013321
:10BEB000FB60FB68032BACD90023181CBD4604B003
:10BEC00080BDC04694160200FFFFFCFF76DF70477E
:10BED000181CC04678DF7047181CC0467ADF7047D0
:10BEE000181CC0467CDF7047181CC04660DF7047D6
:10BEF000181CC0463CDF7047181CC04648DF70471E
:10BF0000181CC04680B582B000AF021C3960BB1D52
:10BF10001A80BB1D1A8805493B68081C111C1A1C95
:10BF2000FCF7AAFABD4602B080BDC046EFBEADDE4A
:10BF300080B582B000AF144A144B101C191CFDF7D9
:10BF40007FFF021CFB1D1A70114AFB1D1B78101C81
:10BF5000191C02F0A3F9031C3B603B68002B10D0B6
:10BF60003B68082B0DD03B680A4A934209D03B68D6
:10BF7000094A934205D03B68181C00210022FCF7B7
:10BF80007BFABD4602B080BD6C2200205C220020FE
:10BF9000F4210020043000000134000080B582B09C
:10BFA00000AF7860FFF7C4FFBD4602B080BDC04659
:10BFB00080B584B000AF78601D4A1E4B101C191C60
:10BFC000FDF73EFF021C0E23FB181A801A4B1B685C
:10BFD0005A1C194B1A60194A0E23FB181B88101C97
:10BFE000191C03F067FA031CBB60BB68002B10D060
:10BFF000BB68082B0DD0BB68114A934209D0BB68BF
:10C00000104A934205D0BB68181C00210022FCF79F
:10C0100033FA094B1B68181C032105F0D3FA0B1CDB
:10C020005A1E9341DAB2084B1A70BD4604B080BD67
:10C030008422002074220020B82200200C2200203C
:10C0400004300000013400006220002080B584B07C
:10C0500000AF78600C4B1B78002B11D00B4A0C4BB7
:10C06000101C191CFDF7ECFE021C0E23FB181A8095
:10C07000084A0E23FB181B88101C191C03F07CFABD
:10C08000BD4604B080BDC046622000209C22002036
:10C090008C2200200C22002080B582B000AF786096
:10C0A0000B4B1B785A1E9341DBB201225340DBB28B
:10C0B0001A1C01231340DAB2054B1A70044B1B788B
:10C0C000044A101C191C03F087FABD4602B080BD5B
:10C0D000BC2200200C22002090B58BB002AF344C63
:10C0E00000230093002008210522231CFDF7E0FC1B
:10C0F000031CFB61FB69BB61BB69002B05D0BB69FD
:10C10000181C00210022FCF7B7F92A4A2A4B101C00
:10C1100001211A1CFDF78AFD031C7B617B693B61D1
:10C120003B69002B05D03B69181C00210022FCF75D
:10C13000A3F9224A224B101C01211A1CFDF776FD9F
:10C14000031C7B617B69FB60FB68002B05D0FB68EF
:10C15000181C00210022FCF78FF91A4A1A4B101CF8
:10C1600001211A1CFDF762FD031C7B617B69BB602A
:10C17000BB68002B05D0BB68181C00210022FCF70F
:10C180007BF9124A124B101C01211A1CFDF74EFDBF
:10C19000031C7B617B697B607B68002B05D07B681F
:10C1A000181C00210022FCF767F9BD4609B090BDBC
:10C1B000C0220020A42200209DBF0100A822002050
:10C1C000B1BF0100AC2200204DC00100B022002010
:10C1D00099C0010080B588B000AF3B1D1A780F21CF
:10C1E0008A43111C01220A431A703B1D1A780F2141
:10C1F0000A40111C10220A431A703A1D294B101CC8
:10C20000191C0A22FFF76EFE031CFB61FB69BB6170
:10C21000BB69002B05D0BB69181C00210022FCF76C
:10C220002BF9214B181CFFF755FE031CFB61FB6922
:10C230007B617B69002B05D07B69181C00210022E3
:10C24000FCF71AF90823FB18181C00210822FBF739
:10C25000AFFF0823FB18A02252001A800823FB1806
:10C26000822292005A800823FB1800229A80082319
:10C27000FB18C8225200DA800823FB18181CFFF7AD
:10C280002DFE031CFB61FB693B613B69002B05D064
:10C290003B69181C00210022FCF7EEF8BD4608B0EF
:10C2A00080BDC046241702004103000080B5A0B045
:10C2B00000AFFB1D03221A705C23FB18181C002121
:10C2C0001422FBF775FF5C23FB1800221A605C2325
:10C2D000FB1801221A715C23FB18FA1D9A605C237B
:10C2E000FB181A7B0F218A43111C01220A431A737F
:10C2F0005C23FB181A7B0F210A40111C10220A43F1
:10C300001A735C23FB185A7B0F218A435A735C23F0
:10C31000FB185A7B0F210A405A735C23FB189A7B47
:10C320000F218A439A735C23FB189A7B0F210A40E2
:10C330009A735C23FB18DA7B0F218A43111C0122BC
:10C340000A43DA735C23FB18DA7B0F210A40111CC5
:10C3500010220A43DA735C23FB181A7C0F218A43EC
:10C360001A745C23FB181A7C0F210A401A74634A62
:10C370005C23FB18101C191C03F046F8031CFB6718
:10C38000FB6FBB67BB6F002B05D0BB6F181C002178
:10C390000022FCF771F84823FB18181C0021142216
:10C3A000FBF706FF4823FB185A7B0F218A43111C19
:10C3B00001220A435A734823FB185A7B0F210A4073
:10C3C000111C10220A435A734823FB189A7B0F2131
:10C3D0008A43111C01220A439A734823FB189A7B53
:10C3E0000F210A40111C10220A439A734823FB189C
:10C3F000DA7B0F218A43DA734823FB18DA7B0F219B
:10C400000A40DA734823FB181A7C0F218A43111C57
:10C4100001220A431A744823FB181A7C0F210A4090
:10C42000111C10220A431A744823FB1800221A60B8
:10C430004823FB1801221A714823FB1800229A6036
:10C440004823FB1864221A732D4A4823FB18101C3A
:10C45000191C01F0E9FE031CFB67FB6F7B677B6F18
:10C46000002B05D07B6F181C00210022FCF704F87C
:10C470000823FB18181C00214022FBF799FE082313
:10C48000FA18204B101C191C03F0F0F80823FB18B5
:10C490003C22995C0F208143081C012101439954DF
:10C4A0000823FB183C22995C0F200140081C102136
:10C4B000014399540823FB183D22995C0F208143C6
:10C4C00099540823FB183D22995C0F200140995490
:10C4D0000823FB18181C02F087FB031CFB67FB6F8B
:10C4E0003B673B6F002B05D03B6F181C00210022DF
:10C4F000FBF7C2FFBD4620B080BDC0460C22002025
:10C50000F42100203017020080B500AF1C4B5122EF
:10C510001A601B4B64225A60194B01229A60184B17
:10C5200001221A73174A164B101C191CFDF76CFCDC
:10C53000154B8C221A60144B962252005A60124BF3
:10C540000A229A60104B00221A73104A0E4B101CDC
:10C55000191CFDF759FC0E4B64221A600C4BFA2291
:10C5600052005A600A4B01229A60094B00221A734A
:10C57000084A074B101C191CFDF746FCBD4680BD40
:10C580005C2200206C2200207422002084220020E3
:10C590008C2200209C22002080B586B000AF2D4B5D
:10C5A0001A6880235B02101C191C0022FDF7B6FBE1
:10C5B000031C7B617B693B613B69002B05D03B69B8
:10C5C000181C00210022FBF757FF234B1A68802319
:10C5D0001B02101C191C0022FDF7A0FB031C7B6131
:10C5E0007B69FB60FB68002B05D0FB68181C0021F1
:10C5F0000022FBF741FF194B1B68194A181C111C3C
:10C600000022FDF78BFB031C7B617B69BB60BB6871
:10C61000002B05D0BB68181C00210022FBF72CFF63
:10C62000104B1A68A0239B02101C191C0022FDF756
:10C6300075FB031C7B617B697B607B68002B05D0ED
:10C640007B68181C00210022FBF716FFBD4606B0D0
:10C6500080BDC046A4220020A8220020AC220020D9
:10C6600066260000B022002080B584B000AF78605C
:10C670007B681B78002B12D10A4B1B88181C3B21AE
:10C68000FFF724FC031CFB60FB68BB60BB68002B4E
:10C6900005D0BB68181C00210022FBF7EDFEBD464B
:10C6A00004B080BD6020002080B582B000AF78600B
:10C6B0007B68181C00210022FBF7DEFEBD4602B09D
:10C6C00080BDC04680B58AB000AF3B1D181C00215C
:10C6D0001C22FBF76DFD3B1D00221A603B1DA022B2
:10C6E00092025A603B1DF02212039A603B1D032206
:10C6F0001A73104B9A893B1DDA813B1D00221A7474
:10C700003B1D0D4A5A613B1D0C4A9A613B1D181C8A
:10C7100001F0F2FE031C7B627B6A3B623B6A002BEA
:10C7200005D03B6A181C00210022FBF7A5FEBD4680
:10C730000AB080BD0C22002069C60100A9C6010014
:10C7400080B588B000AF021CFB1D1A70FB1D1B7862
:10C75000002B14D0022B00D042E00220FFF794FA05
:10C76000031CFB61FB69BB61BB69002B06D0BB6985
:10C77000181C00210022FBF77FFE31E030E0002092
:10C78000FFF782FA031CFB61FB697B617B69002B6D
:10C7900005D07B69181C00210022FBF76DFE0320E9
:10C7A000FFF730FB031CFB61FB693B613B69002B1E
:10C7B00005D03B69181C00210022FBF75DFEFFF746
:10C7C00099FB031CFB61FB69FB60FB68002B06D037
:10C7D000FB68181C00210022FBF74EFEFFE7C04655
:10C7E000BD4608B080BDC04680B584B000AF78605B
:10C7F0007B681B88102B02D0112B15D019E0072065
:10C80000FFF742FA031CFB60FB68BB60BB68002BB0
:10C8100005D0BB68181C00210022FBF72DFE7B68A9
:10C820009A88054B1A8004E0034B012252421A8079
:10C83000C046BD4604B080BD6020002080B582B0F7
:10C8400000AF78607B68181C03F0BEFF0D4A7B6860
:10C85000101C191C02F0A8FB0B4A7B68101C191C49
:10C8600001F054FB7B68181C01F094FF7B68181CD6
:10C87000FFF7BAFF7B68181C01F0D8F9BD4602B07B
:10C8800080BDC0460C220020F421002080B582B07B
:10C8900000AF78607B68181CFDF72AFE7B68181CC7
:10C8A00001F076FABD4602B080BDC04680B588B0C2
:10C8B00000AF2A4B0820191C4822002304F044FD35
:10C8C000031CFB61FB69BB61BB69002B05D0BB6925
:10C8D000181C00210022FBF7CFFD3B1C181C002177
:10C8E0000822FBF765FC3B1C1A7801210A431A70E9
:10C8F0003B1C181CFFF7FAFA031C7B617B693B6148
:10C900003B69002B05D03B69181C00210022FBF776
:10C91000B3FD134B181C04F05DFD031C7B617B69A8
:10C92000FB60FB68002B05D0FB68181C002100226F
:10C93000FBF7A2FD0B4B181C04F060FD031C7B6190
:10C940007B69BB60BB68002B05D0BB68181C00214D
:10C950000022FBF791FDBD4608B080BDC825002030
:10C960003DC801008DC8010080B586B000AFF860F9
:10C97000B9607A607B687B617B69002B05D07B693D
:10C98000181C00210022FBF777FD0023181CBD4670
:10C9900006B080BD80B58AB000AFFEF70FF9031C6A
:10C9A0007B627B6A3B623B6A002B05D03B6A181CAA
:10C9B00000210022FBF760FD1023FB180120191C49
:10C9C000FEF75EFD031C7B627B6AFB61FB69002B4B
:10C9D00005D0FB69181C00210022FBF74DFD102338
:10C9E000FB18181C03F074FD031C7B627B6ABB619F
:10C9F000BB69002B05D0BB69181C00210022FBF786
:10CA00003BFD3B1D0533181C00210522FBF7D0FB25
:10CA10003B1D5A7901210A435A713B1D5A79022163
:10CA20008A435A713B1D5A791C218A43111C0C22DE
:10CA30000A435A713B1D5A7920218A435A713B1D82
:10CA400007229A713B1D1022DA713B1D0D4A1A60B4
:10CA50003B1D01221A710C4A3B1D101C191C03F0CE
:10CA6000EDFD031C7B627B6A7B617B69002B05D03B
:10CA70007B69181C00210022FBF7FEFCBD460AB0B2
:10CA800080BDC04669C90100B422002080B598B0BD
:10CA900000AF2423FB18181C00213022FBF788FB71
:10CAA0002423FB1802221A702423FB1801229A70F7
:10CAB0002423FB180622DA702423FB1803221A828F
:10CAC0002423FB18244A5A612423FB18181C002134
:10CAD00000F082FD031CFB65FB6DBB65BB6D002B8D
:10CAE00005D0BB6D181C00210022FBF7C5FC3B1DC7
:10CAF00000221A6000225A6000229A600022DA6046
:10CB000000221A6100225A6100229A610022DA6131
:10CB10003B1D01221A723B1D96225200DA603B1D1A
:10CB2000B4221A612423F9183A1D0C4B081C111C5D
:10CB30001A1C002300F0F4FD031CFB65FB6D7B65F4
:10CB40007B6D002B05D07B6D181C00210022FBF7AC
:10CB500093FCBD4618B080BD6420002041C7010091
:10CB600080B582B000AFFFF7C9F9031C7B607B681A
:10CB70003B603B68002B05D03B68181C002100225D
:10CB8000FBF77AFCBD4602B080BDC04680B584B0DC
:10CB900000AFFFF78BFEFFF79FFA1D4B0120191C1A
:10CBA000FBF7B4FE031CFB60FB68BB60BB68002B9B
:10CBB00005D0BB68181C00210022FBF75DFC154B5B
:10CBC0000320191C0022FFF77BF8031C7B607B68A5
:10CBD0003B603B68002B05D03B68181C00210022FD
:10CBE000FBF74AFCFFF7D6FEFFF7F4FAFFF74EFF1C
:10CBF000FFF75CFBFFF788FCFFF764FDFFF7CCFC59
:10CC0000022000F09FFE031C7B60FFF7A9FFFCE7FA
:10CC100010260020CD0C000072DF7047181CC046A3
:10CC200079DF7047181CC0467DDF7047181CC0466E
:10CC300065DF7047181CC04680B582B000AF021C8B
:10CC40003960BB1D1A80BB1D1B88DAB23B681A70A5
:10CC50003B680133BA1D1288120A92B2D2B21A701E
:10CC60000223181CBD4602B080BDC04680B588B006
:10CC700000AFF860B9607A601C23FB187A681278FC
:10CC80001A701C23FB181B7802331F2B04DCFB6873
:10CC90005B7802331F2B01DD0C2380E01C23FB1883
:10CCA0001B789AB21E23FB181D218A1A1A8016239C
:10CCB000FB181E22BA1812881A801C23FB181B7836
:10CCC0000233BA68D2181623FB18101C191CFFF780
:10CCD000ABFF031CBB61BB69002B01D0BB695EE0ED
:10CCE000FB681B78022B12D11623FB181B881E220F
:10CCF000BA1812889A420AD31D23FB1809221A7007
:10CD00001E23FB181622BA1812881A801BE01D2356
:10CD1000FB1808221A70FB685B78002B0DD0FB68AB
:10CD20005B789BB21E22BA1812889A4205D3FB6820
:10CD30005A781E23FB181A8005E01E23FB181622C2
:10CD4000BA1812881A801C23FB181B781C22BA18E8
:10CD5000591C11701A1CBB689B181E22BA18128825
:10CD6000D2B20132D2B21A701C23FB181B781C22DB
:10CD7000BA18591C11701A1CBB689B181D22BA18CE
:10CD800012781A707B681A781E23FB181B88DBB296
:10CD9000D318DBB20233DAB27B681A700023181C96
:10CDA000BD4608B080BDC04680B584B000AF786095
:10CDB00039603B681B7804331F2B01DD0C2336E000
:10CDC0000A23FB18181CFFF72BFF031CFB60FB68F2
:10CDD000002B01D0FB682AE03B681B785A1CD1B2BB
:10CDE0003A6811701A1C7B689B1803221A703B6802
:10CDF0001B785A1CD1B23A6811701A1C7B689B18B8
:10CE000019221A700A23FB181A883B681B78191C10
:10CE10007B685B18101C191CFFF70EFF031C1A1C03
:10CE20003B681B789B18DAB23B681A700023181C09
:10CE3000BD4604B080BDC04680B584B000AFB960C7
:10CE40007A600F23FB18021C1A707B681B7803336F
:10CE50001F2B01DD0C2323E07B681B785A1CD1B209
:10CE60007A6811701A1CBB689B1802221A707B68C2
:10CE70001B785A1CD1B27A6811701A1CBB689B18B7
:10CE80000A221A707B681B785A1CD1B27A6811701A
:10CE90001A1CBB689B180F22BA1812781A7000234C
:10CEA000181CBD4604B080BD80B58AB000AFF860E4
:10CEB000081C111C7B600B23FB18021C1A700A2330
:10CEC000FB180A1C1A702323FB1800221A70222355
:10CED000FB183A6B12781A7000237B6280E0FB68C3
:10CEE0005A687B6A9B00D3181422BA18111C1A1CAA
:10CEF0000423081C111C1A1C04F07FFB1423FA18CD
:10CF00001A23FB18101C191C0022FFF791FE031CAA
:10CF1000FB61FB69002B01D0FB697DE01A23FB1844
:10CF20001B780A22BA1812789A4256D12323FB188A
:10CF30001B78002B01D0002200E002221B23FB18EB
:10CF40001A703B6B1B781A1C1A23FB181B78D2181B
:10CF50001B23FB181B78D3181F2B01DD0C235BE070
:10CF60002323FB181B7801225340DBB2002B16D081
:10CF70003B6B1B780133DAB23B6B1A703B6B1B784F
:10CF80005A1CD1B23A6B11701A1C7B689B180B2289
:10CF9000BA1812781A702323FB1801221A703B6BFF
:10CFA0001B781A1C7B689B181422B9181A22BA180D
:10CFB000081C111C1A1CFFF73BFE031CFB61FB69DC
:10CFC000002B01D0FB6927E03B6B1A781A23FB1872
:10CFD0001B78D318DAB23B6B1A707B6A01337B6221
:10CFE000FB681B881A1E7B6A9A4200DD77E72323C1
:10CFF000FB181B78002B0ED02223FB181B787A68B5
:10D00000D3183A6B11782222BA1812788A1AD2B23F
:10D01000013AD2B21A700023181CBD460AB080BD76
:10D0200090B589B002AFF860081C111C7B600B231F
:10D03000FB18021C1A700A23FB180A1C1A70F968E4
:10D040000B23FB181A787C68BB6A0093081C111C20
:10D050000222231CFFF728FF031C7B617B69002B46
:10D0600001D07B6914E0F9680A23FB181A787C6800
:10D07000BB6A0093081C111C1022231CFFF714FF2D
:10D08000031C7B617B69002B01D07B6900E00023DE
:10D09000181CBD4607B090BD80B582B000AF786067
:10D0A0007B681B88052B0AD97B681A88C8231B015B
:10D0B0009A4206D97B681B88164A934201D00723FF
:10D0C00023E07B685B88052B0AD97B685A88C823D4
:10D0D0001B019A4206D97B685B880E4A934201D0B5
:10D0E000072312E07B681B880A4A93420CD07B68B6
:10D0F0005B88084A934207D07B681A887B685B8804
:10D100009A4201D9072300E00023181CBD4602B053
:10D1100080BDC046FFFF000080B586B000AFF8605C
:10D12000B9607A607B681B7806331F2B01D90C230A
:10D1300047E0FB68181CFFF7AFFF031C7B617B69AE
:10D14000002B01D07B693CE07B681B785A1CD1B274
:10D150007A6811701A1CBB689B1805221A707B68CC
:10D160001B785A1CD1B27A6811701A1CBB689B18C4
:10D1700012221A70FB681A887B681B78191CBB681E
:10D180005B18101C191CFFF757FD031C1A1C7B6849
:10D190001B789B18DAB27B681A70FB685A887B6828
:10D1A0001B78191CBB685B18101C191CFFF744FD89
:10D1B000031C1A1C7B681B789B18DAB27B681A70F8
:10D1C0000023181CBD4606B080BDC04680B586B0A1
:10D1D00000AFF860B9607A60FB689B88DAB2172309
:10D1E000FB1802321A707B681B789A1C1723FB18F5
:10D1F0001B78D3181F2B01DD0C234EE07B681B78B6
:10D200005A1CD1B27A6811701A1CBB689B1817227D
:10D21000BA1812780132D2B21A707B681B785A1C85
:10D22000D1B27A6811701A1CBB689B18FF221A7061
:10D23000FB681A887B681B78191CBB685B18101C7C
:10D24000191CFFF7F9FC031C1A1C7B681B789B1840
:10D25000DAB27B681A70FB689B88002B1CD0FB68D5
:10D260009B68002B01D1072317E07B681B781A1CF1
:10D27000BB689918FB689A68FB689B88081C111C9E
:10D280001A1C04F0BAF97B681A78FB689B88DBB239
:10D29000D318DAB27B681A700023181CBD4606B09A
:10D2A00080BDC04680B588B000AFF860B9607A60D4
:10D2B000FB689B6A002B01D1072374E01F23FB1836
:10D2C00000221A7066E0FB68996A1F23FB181A781F
:10D2D000131C5B009B189B00CB18BB61BB699B8830
:10D2E000DAB21723FB1802321A707B681B785A1CBB
:10D2F000D1B27A6811701A1CBB689B181722BA1831
:10D3000012780132D2B21A707B681B785A1CD1B2E3
:10D310007A6811701A1CBB689B1816221A70BB69B8
:10D320001A887B681B78191CBB685B18101C191CB9
:10D33000FFF782FC031C1A1C7B681B789B18DAB26F
:10D340007B681A70BB699B88002B1CD0BB699B68EB
:10D35000002B01D1072326E07B681B781A1CBB68D1
:10D360009918BB699A68BB699B88081C111C1A1C18
:10D3700004F043F97B681A78BB699B88DBB2D31849
:10D38000DAB27B681A701F23FB181A781F23FB1868
:10D3900001321A70FB682C229B5C1F22BA1812788B
:10D3A0009A4290D30023181CBD4608B080BDC046E9
:10D3B00090B589B002AFF860B9607A6000237B61F4
:10D3C0007B6800221A70FB681B78002B0ED0F9686E
:10D3D000BA687B68081C111C1A1CFFF747FC031C69
:10D3E0007B617B69002B01D07B69CEE0FB689B7879
:10D3F000002B0CD0BA687B68101C191CFFF7D4FCFA
:10D40000031C7B617B69002B01D07B69BDE0FB685D
:10D41000DB78002B21D07B681B785A1CD1B27A684C
:10D4200011701A1CBB689B1802221A707B681B784B
:10D430005A1CD1B27A6811701A1CBB689B18012261
:10D440001A707B681B785A1CD1B27A6811701A1C4A
:10D45000BB689B18FA68D2781A70FB685B68002B6F
:10D4600011D0FB685B681B7859B2BA687B68081CEE
:10D47000111C1A1CFFF7E0FC031C7B617B69002B6D
:10D4800001D07B6981E0FB681B89002B12D0FB680F
:10D4900008331A1CBC687B680093101C022106220A
:10D4A000231CFFF7BDFD031C7B617B69002B01D0B2
:10D4B0007B696AE0FB681B8A002B12D0FB68103383
:10D4C0001A1CBC687B680093101C03210722231CD4
:10D4D000FFF7A6FD031C7B617B69002B01D07B69F4
:10D4E00053E0FB681B8B002B12D0FB6818331A1C0F
:10D4F000BC687B680093101C14211522231CFFF7C5
:10D500008FFD031C7B617B69002B01D07B693CE0B4
:10D51000FB681B6A002B0FD0FB68196ABA687B682E
:10D52000081C111C1A1CFFF7F7FD031C7B617B69AB
:10D53000002B01D07B6928E0FB685B6A002B0FD0D1
:10D54000FB68596ABA687B68081C111C1A1CFFF733
:10D550003DFE031C7B617B69002B01D07B6914E0DD
:10D56000FB682C229B5C002B0ED0F968BA687B68A4
:10D57000081C111C1A1CFFF795FE031C7B617B69BC
:10D58000002B01D07B6900E07B69181CBD4607B009
:10D5900090BDC04680B582B000AF78607B68DB7814
:10D5A0001A1C0423134001D1072300E00023181C98
:10D5B000BD4602B080BDC04680B582B000AF786085
:10D5C0007B68DB78002B01D0072300E00023181CC8
:10D5D000BD4602B080BDC04680B596B000AF786051
:10D5E00039604B23FB1800221A704A23FB180022D3
:10D5F0001A707B68002B1FD07B68181CFFF7CAFFCE
:10D60000031CFB64FB6C002B01D0FB6C46E07968CB
:10D610002823FA184B23FB18081C111C1A1CFFF7AF
:10D62000C7FE031CFB64FB6C002B01D0FB6C35E0D8
:10D630002823FB187B6501E000237B653B68002BFA
:10D640001FD03B68181CFFF7B7FF031CFB64FB6C83
:10D65000002B01D0FB6C21E039680823FA184A231B
:10D66000FB18081C111C1A1CFFF7A2FE031CFB640C
:10D67000FB6C002B01D0FB6C10E00823FB183B6512
:10D6800001E000233B654B23FB1819784A23FB1864
:10D690001B78786D3A6DFFF7BFFA031C181CBD4666
:10D6A00016B080BD73DF7047181CC04680B582B0CD
:10D6B00000AF78607B681B79002B03D17B681B7BF4
:10D6C000002B01D0012300E00023181CBD4602B04E
:10D6D00080BDC04680B500AF034B181C0021072257
:10D6E000FAF766FDBD4680BD2826002080B584B0CF
:10D6F00000AF78600023FB600AE07A68FB68D3180B
:10D700001B78002B01D0012306E0FB680133FB608E
:10D71000FB68052BF1D90023181CBD4604B080BD61
:10D7200090B589B000AFF860B9607A603B60FB6883
:10D73000002B02D0BB68002B01D10E23E2E0734B1B
:10D7400000221A70724B7A681A60724B3A681A603B
:10D75000714BBA6813CA13C313CA13C303CA03C3F2
:10D760006D4BDB68002B03D06B4B1B69002B02D188
:10D77000694B00221A72684B9B69002B03D0664BE1
:10D78000DB69002B02D1644B00221A75FFF7A2FF60
:10D79000624B634A1A60614B624A9A60624B181C82
:10D7A00000213022FAF704FDFB681A785E4B1A70EC
:10D7B000FB689A785C4B9A70FB68DA785A4BDA709F
:10D7C000FB685A78584B5A70574BFA68103310322E
:10D7D00003CA03C3544BFA680833083203CA03C3AD
:10D7E000514BFA681833183203CA03C3FB685B6AEB
:10D7F000002B29D04C4B4D4A5A624C4B4C4A9A60F4
:10D80000494B5A6AFB685B6A1B881380464B5A6A0D
:10D81000FB685B6A9B8893800023FB610DE0FB68DB
:10D820005B6A9A68FB69D3181978414AFB69D31877
:10D830000A1C1A70FB690133FB613B4B5B6A9B88D6
:10D840001A1EFB699A42EAD8FB689B6A002B33D008
:10D85000384B394A9A60344B364A9A62324B9B6A4B
:10D86000354A9A60304B9A6AFB689B6A9B88938022
:10D870002D4B9A6AFB689B6A1B8813800023BB614F
:10D880000DE0FB689B6A9A68BB69D31819782A4A2D
:10D89000BB69D3180A1C1A70BB690133BB61224BE8
:10D8A0009B6A9B881A1EBB699A42EAD8FB682C22A5
:10D8B000995C1D4B2C229954FB681B6A002B0ED0DF
:10D8C000194B1E4A1A62184B1A6AFB681B6A5B885E
:10D8D0005380154B1A6AFB681B6A1B881380FB6810
:10D8E0005B68002B06D0104B154A5A60FB685A68DB
:10D8F0000D4B5A600C4B181C0021FFF76DFE031CEA
:10D900007B617B69181CBD4609B090BD6C26002068
:10D910006426002068260020C426002070260020EF
:10D9200080260020A026002030260020E4260020AB
:10D93000F0260020102700201C2700203C27002074
:10D940004027002080B58AB000AF021CFB1D1A7072
:10D95000AA4BFA1D12781A700823FB18181CFDF741
:10D960006FFD031C7B627B6A002B01D07B6A41E167
:10D97000BB68002B04D0A24B01221A70002339E1AE
:10D98000FFF7A8FE9F4B5B78002B12D09B4B1B78B8
:10D99000012B0ED19C4B1B68002B07D09B4B012207
:10D9A0001A70994B1B680720984702E0974B00229A
:10D9B0001A70924B1B78012B14D1924B5B78012289
:10D9C0005340DBB2002B0AD1914B181CFFF78EFE9F
:10D9D000031C1A1C01235340DBB2002B02D0874BDF
:10D9E00002221A70874B1B7A01225340DBB2002BB4
:10D9F00006D0824B1B78022B02D1804B03221A7077
:10DA0000804B1B7D01225340DBB2002B09D07B4BA6
:10DA10001B78032B05D1794B00221A707D4B002215
:10DA20001A70794B1B68002B1AD0744B1B78022B91
:10DA300003D0724B1B78032B12D1724B1B78002B37
:10DA40000ED0754B1B7801225340DBB2002B07D060
:10DA5000724B01221A706C4B1B680620984702E03B
:10DA60006E4B00221A700C23FB18181C0021182280
:10DA7000FAF79EFB0C23FB1800221A700C23FB18EC
:10DA800000225A600C23FB1800221A720C23FB1888
:10DA90000022DA60594B1B78022B18D0032B52D08E
:10DAA000012B00D08BE00C23FB185D4A5A600C233D
:10DAB000FB1801221A700C23FB1800225A820C2337
:10DAC000FB1800221A82534B01221A7077E04D4B4B
:10DAD0001B699AB20C23FB185A824A4BDB689AB234
